:03000000020EDB12
:0C0EDB00787FE4F6D8FD758143020B5CC3
:100CAF00202020496F54204261736564202020204A
:100CBF00002020456E65726779204D65746572005E
:100CCF00446576656C6F7065642042792E2E2E2EEA
:100CDF00004368696E6D6F792042686172616C695B
:100CEF00200050617269206368657469612020205B
:100CFF002020004B7568696D6120426567756D2016
:100D0F002020200047756964656420427900506196
:100D1F0072696D697461205361696B69612000525A
:100D2F004953542D4543452D323031392020200071
:100D3F00554E4954203A0050554C53453A002534EE
:100D4F006400687474703A2F2F7365727665722F12
:100D5F0072697374656D657465722E636F6D3F4450
:0E0D6F0049443D4430303126554E49543D0034
:0A0E4100C2818F90D2827F027E00F2
:100E4B00D3EF9400EE6480948040147DFB7C04ED22
:0F0E5B001D70011CED4C70F7EF1F70E41E80E15D
:010E6A002265
:090ECA007F647E00120E4B7FC014
:080ED300C280120E41C282220E
:080EF300D280120E41C28222DE
:100EB6007F38120ED37F06120ED37F0C120ED37F0D
:040EC60001020ED344
:0B0E0B007FC6120ED37B007A00792610
:060E16008B308A318932A5
:100E1C00E4F533F534AB30AA31A93285348285330D
:100E2C0083120D7DFF600D120EF30534E53470E571
:040E3C00053380E119
:010E4000228F
:0C0EE700758920759850758DFDD28E2203
:080EFB008F993099FDC2992284
:060E92008B308A31893229
:100E9800E4FDFCAB30AA31A9328D828C83120D7D22
:0D0EA800FF600A120EFB0DBD00010C80E67C
:010EB500221A
:100B5C00E4F522F523F524F525120EB6120EE77BEB
:100B6C00FF7A0C79AF120E167FC0120ED37BFF7A70
:100B7C000C79C0120E167F647E00120E4B7F011290
:100B8C000ED37BFF7A0C79CF120E16120ECA7BFF96
:100B9C007A0C79E0120E16120ECA7BFF7A0C79F1E0
:100BAC00120E16120ECA7BFF7A0D7902120E161255
:100BBC000ECA7BFF7A0D7902120E167F647E00122C
:100BCC000E4B7F01120ED37BFF7A0D7913120E168A
:100BDC00120ECA7BFF7A0D791D120E16120ECA7BED
:100BEC00FF7A0D792E120E167F647E00120E4B7F4B
:100BFC0001120ED37BFF7A0D793F120E167FC012B5
:100C0C000ED37BFF7A0D7946120E1620B2FD05230A
:100C1C00E523700205227533FF75340D75354D854E
:100C2C002236F5377B007A00792612085C120E0BFF
:100C3C0030B2FDC3E5239403E5226480948040CB5D
:100C4C000525E52570020524E4F522F5237533FF0F
:100C5C0075340D75354D852436852537FB7A00792D
:100C6C002612085C7F86120E0D7BFF7A0D795112CD
:100C7C000E927B007A007926120E927F0A120EFBDE
:100C8C007F0D120EFB7533FF75340D75354D8522B6
:100C9C00368523377B007A00792612085C120E0BFE
:030CAC00020C1720
:100D7D00BB010CE58229F582E5833AF583E022502B
:100D8D0006E92582F8E622BBFE06E92582F8E22275
:0D0D9D00E58229F582E5833AF583E493228F
:10080000E53F2433F8E6053F22783030070278339D
:10081000E475F001120DD5020DAA2000EB7F2ED257
:10082000008018EF540F2490D43440D4FF30040BD0
:10083000EF24BFB41A0050032461FFE540600215A5
:10084000400543E5437002054230070D7830E475FA
:10085000F001120DD5EF020DC3020E6B7403D20727
:100860008003E4C207F53F8B308A318932E4F540DA
:10087000F542F543E54060077F2012083B80F5759F
:1008800041FFC201C200C202C203C205C206C208C1
:10089000120809FF700D3007057F0012084CAF43A6
:1008A000AE4222B4255FC2D5C204120809FF24D08B
:1008B000B40A00501A75F00A784030D50508B6FF22
:1008C0000106C6A426F620D5047002D20380D924DE
:1008D000CFB41A00EF5004C2E5D204020A4CD20190
:1008E00080C6D20080C0D20280BCD2D580BAD205E8
:1008F00080B47F2012083B2002077401B5400040FD
:10090000F1120800FF12083B020874D208D20680D8
:1009100095120800FB120800FA120800F94A4B7001
:1009200006791D7A0B7BFF20022EE540602A7E00AF
:100930008E82758300120D7D60060EEE654170F0AB
:10094000C2D5EBC0E0EAC0E0E9C0E0EE120A93D005
:10095000E0F9D0E0FAD0E0FB120DAAFF60AAEBC0EC
:10096000E0EAC0E0E9C0E012083BD0E02401F9D0A1
:10097000E03400FAD0E0FBE5410460DCD541D980E9
:10098000877BFF7A0A798FD202809C791080027966
:1009900008C206C2088008D2D5790A8004790AC242
:1009A000D5E541047002F541E4FAFDFEFF120800AE
:1009B000FC7B08200113120800FD7B1030000A1296
:1009C0000800FE120800FF7B20EC3382D592D55040
:1009D00013C3E43000069FFFE49EFEE42001039D64
:1009E000FDE49CFCE4CBF8C201EC700CCFCECDCC86
:1009F000E824F8F870F38017C3EF33FFEE33FEED11
:100A000033FDEC33FCEB33FB994002FB0FD8E9EBF1
:100A1000300105F8D0E0C448B201C0E00AEC4D4E08
:100A20004F78207B0070C2EAB5410040BCC0E012A4
:100A30000A95D0F0D0E0200104C4C0E0C4B201C0E7
:100A4000F0120824D0F0D5F0EB020874120DE5097D
:100A50001153098B5808E24C08DE42098F4F099761
:0F0A60004409974908F743099D550981460981C3
:100A6F00450981470B3D5008E62D08EA2E090D2B4D
:100A7F0008EE23090B200B262A08A64800000905BB
:100A8F003F3F3F00790AA2D5200314300509B91062
:100A9F00020404B9080104A2D52006025001042063
:100AAF0002689202B540005034C0E07F2030031935
:100ABF007F30A20272067205500F120AECC202C2F8
:100ACF0006C205C2087F30800F300503E9C0E0126F
:100ADF00083B300503D0E0F9D0E0B540CC30051726
:100AEF007F30B9100C12083B7F583004077F788095
:100AFF0003B9080312083B3002057F2D02083B7F24
:100B0F00202008F87F2B2006F322920280CF286E38
:100B1F00756C6C2900D2011208003001F8C20178FF
:100B2F004030D50108F60208A62D50434958120847
:100B3F00002403B405004001E4900B389312082CF5
:0D0B4F00743A12082CD20375400402098B81
:100DAA00BB010689828A83E0225002E722BBFE0247
:090DBA00E32289828A83E493227A
:100DC300BB010689828A83F0225002F722BBFE010F
:020DD300F32209
:100DD500FAE6FB0808E6F925F0F618E6CA3AF6221F
:100DE500D083D082F8E4937012740193700DA3A39D
:100DF50093F8740193F5828883E4737402936860B1
:060E0500EFA3A3A380DFB0
:100E6B00EFB40A07740D120E76740A309811A89914
:100E7B00B8130CC2983098FDA899C298B811F630E7
:070E8B0099FDC299F59922BF
:00000001FF
